:020000040800F2
:1000000000500020090400085704000859040008A3
:100010005B0400085D0400085F04000800000000A5
:100020000000000000000000000000006104000863
:10003000630400080000000065040008670400086D
:10004000510400085104000851040008510400083C
:10005000510400085104000851040008510400082C
:10006000510400085104000851040008510400081C
:10007000510400085104000851040008510400080C
:1000800051040008510400085104000851040008FC
:1000900051040008510400085104000851040008EC
:1000A00051040008510400085104000851040008DC
:1000B000510400086D0400085104000851040008B0
:1000C00051040008510400085104000851040008BC
:1000D00051040008510400085104000851040008AC
:1000E00051040008510400085104000800000000F9
:1000F0000000000000000000000000000000000000
:0C01000000000000000000005FF808F1A3
:10010C00044B05481B1A062B02D9044B03B11847A4
:10011C00704700BF370400203404002000000000AA
:10012C0005490648091A891001EBD171491002D012
:10013C00034B03B1184770473404002034040020EB
:10014C000000000010B5064C237843B9FFF7D8FF28
:10015C00044B13B10448AFF300800123237010BD8E
:10016C003404002000000000C40F000808B5084B40
:10017C001BB108490848AFF300800848036813B95D
:10018C00BDE80840CCE7064B002BF9D09847F7E7C1
:10019C000000000038040020C40F000834040020C4
:1001AC0000000000002301461A46184600F090B8E3
:1001BC0038B50A4C0A4D641BA4100AD004F18043D4
:1001CC00013B05EB8305013C55F804399847002C9D
:1001DC00F9D1BDE8384000F0F5BE00BF10100008A2
:1001EC000C10000870B50F4E0F4D761BB61018BFD3
:1001FC00002405D0013455F8043B9847A642F9D1A8
:10020C000A4E0B4D00F0D8FE761BB61018BF00241A
:10021C0006D0013455F8043B9847A642F9D170BD7D
:10022C0070BD00BF04100008041000080C1000087A
:10023C000410000870B4860746D0541E002A41D022
:10024C00CAB2034602E014F1FF343BD303F8012B8E
:10025C009D07F8D1032C2ED9CDB245EA05250F2CDC
:10026C0045EA054519D9264603F11002103E0F2E1A
:10027C0042F8105C42F80C5C42F8085C42F8045CF2
:10028C0002F11002F2D8A4F1100222F00F0204F0D5
:10029C000F041032032C13440DD91E462246043A87
:1002AC00032A46F8045BFAD8221F22F00302043218
:1002BC00134404F003042CB1C9B21C4403F8011B11
:1002CC009C42FBD170BC704714460346C2E700BF8A
:1002DC002DE9F047274C074626688846D6F8484152
:1002EC0092469946002C3CD065681F2D1ADC05F10E
:1002FC00010E7FB1012004EB8503C3F888A0D4F86C
:10030C00881100FA05F21143022FC4F88811C3F8C2
:10031C00089120D00235C4F804E0002044F8258070
:10032C00BDE8F087144B0BB34FF4C870AFF30080EB
:10033C000446D8B10020D6F848314FF0010E606069
:10034C0023600546C6F84841C4F88801C4F88C01FE
:10035C00002FDFD0CEE7D4F88C311A43C4F88C21AF
:10036C00D8E706F5A674C6F84841BDE74FF0FF3054
:10037C00BDE8F087EC0F00080000000000F0BAB8F0
:10038C0010B590B01422002101A8FFF753FF2822CA
:10039C00002106A8FFF74EFF01230A931023022425
:1003AC000B934FF4601306A806940D940F9300F072
:1003BC001DFA00B1FEE70F2301934FF48063039005
:1003CC000590214601A80294049300F0D9FB00B1DA
:1003DC00FEE710B010BD08B500F0F4F8FFF7D0FF41
:1003EC0000F06AF800F0BCF808B100F089F800F0F1
:1003FC00C7F808B100F084F8FEE70000002103E024
:10040C000B4B5B58435004310A480B4B42189A4231
:10041C00F6D30A4A02E0002342F8043B084B9A4206
:10042C00F9D300F023F8FFF7DDFEFFF7D4FF704798
:10043C0010100008000000203404002034040020B8
:10044C0094040020FEE7704770477047FEE7FEE714
:10045C00FEE7FEE770477047704700F0C5B8000034
:10046C00014800F0A8BC00BF500400200F4B1A68D4
:10047C0042F001021A6059680D4A0A405A601A6823
:10048C0022F0847222F480321A601A6822F48022DC
:10049C001A605A6822F4FE025A604FF41F029A60E6
:1004AC004FF00062034B9A60704700BF001002408F
:1004BC000000FFF800ED00E07FB52023029301233C
:1004CC00002203930593094B04929A6902A942F006
:1004DC0004029A619B69064803F004030193019B93
:1004EC0000F0A0F807B05DF804FB00BF001002405C
:1004FC00000801402021014800F074B900080140B7
:10050C0008B5FFF7F7FF322000F07CF8F9E70000A0
:10051C000A4B07B5DA69032142F00202DA61DB69A2
:10052C00002203F0020301931D20019B00F0DEFB6F
:10053C001D2000F00FFC03B05DF804FB001002401E
:10054C004FF4FA43054A80E80C006423C36000238F
:10055C008360036143618361704700BF0004004006
:10056C0010B5064C2046FFF7EBFFFFF7D1FF2046F6
:10057C0000F0FCFC003018BF012010BD500400201E
:10058C0008B5034800F008FC003018BF012008BD76
:10059C005004002008B5FFF7F1FE08BD084B10B55C
:1005AC00044618684FF47A73B0FBF3F000F0DEFBEE
:1005BC00002221464FF0FF3000F098FB002010BDC8
:1005CC0030040020074A08B51368032043F01003D9
:1005DC00136000F079FB0F20FFF7E0FFFFF733FF0C
:1005EC00002008BD00200240024A1368013313604A
:1005FC00704700BF90040020014B1868704700BF83
:10060C009004002037B50190FFF7F6FF0546019CDA
:10061C00631C18BF0134FFF7EFFF401BA042FAD355
:10062C0003B030BD2DE9F74F00221646654BDFF8BD
:10063C00A4E1DFF8A4C14FF001080C6808FA06F831
:10064C0008EA0404A0457FD14D68122D00F0AF805C
:10065C0000F28880022D00F0A7807CD8002D00F0DD
:10066C008E80012D00F09E804FF00F09FF2C93BF60
:10067C00824606F18045083DD0F800B092BFB50027
:10068C00D0F804B0AD0009FA05F82BEA080802FA14
:10069C0005F588BF00F1040A48EA0505CAF80050C0
:1006AC00D1F804A01AF0805F4ED0474D464FAD698B
:1006BC0026F0030845F00105BD61BD6908F18048CD
:1006CC0005F00105019508F5803806F0030B019D36
:1006DC004FEA8B0BD8F8085009FA0BF925EA0909EF
:1006EC003A4DA84268D005F58065A84266D005F55C
:1006FC008065A84264D005F58065A8420CBF03252F
:10070C00042505FA0BF545EA0905C8F808501D68DB
:10071C001AF4803F14BF2543A5431D605D681AF48D
:10072C00003F14BF2543A5435D609D681AF4801FEC
:10073C0014BF2543A5439D60DD681AF4001F14BF48
:10074C002C4325EA0404DC600136102E7FF473AFD1
:10075C0003B0BDE8F08F032D22D0112D84D1CA68CF
:10076C00043281E71A4FBD4209D012D8DFF86C90E1
:10077C004D4504D009F580394D457FF475AF8A6835
:10078C00C2B1012A0CBFC0F81080C0F81480082236
:10079C006AE77545F3D06545F1D0DFF84490EBE797
:1007AC00002261E7CA685FE7CA6808325CE7CA687A
:1007BC000C3259E7042257E70025A2E70125A0E7F0
:1007CC0002259EE700040140001002400008014091
:1007DC000000211000003110000032100000111038
:1007EC0000002210C3685940C160704703682DE9AE
:1007FC00F341DB07054610D42B689F075ED42B68AA
:10080C00190700F195802B685A0700F1BF80EA693F
:10081C00002A40F02D81002014E0904C636803F016
:10082C000C03042B07D0636803F00C03082B0CD1CA
:10083C006368DE0309D523689C03DDD56B68002B48
:10084C00DAD1012002B0BDE8F0816B68B3F5803FCE
:10085C0010D1236843F480332360FFF7CDFE0646A6
:10086C0023689803C8D4FFF7C7FE801B6428F7D908
:10087C000320E7E79BB9236823F4803323602368C4
:10088C0023F480232360FFF7B7FE06462368990301
:10089C00B2D5FFF7B1FE801B6428F7D9E8E7B3F5B2
:1008AC00A02F236803D143F480232360D1E723F4E2
:1008BC0080332360236823F48023CDE7674C63687F
:1008CC0013F00C0F07D0636803F00C03082B10D146
:1008DC006368DA030DD423689B0702D52B69012BBF
:1008EC00AFD123686A6923F0F80343EAC20323609B
:1008FC0085E72A695A4B6AB101221A60FFF77CFE20
:10090C00064623689F07ECD4FFF776FE801B02286F
:10091C00F7D9ADE71A60FFF76FFE06462368980714
:10092C007FF56DAFFFF768FE801B0228F6D99FE7B5
:10093C00AA694A4C4B4BDAB101221A60FFF75CFEF4
:10094C000646636A9B070DD54FF4FA52464B1B685B
:10095C00B3FBF2F3019300BF019B5A1E0192002BD3
:10096C00F9D150E7FFF748FE801B0228E9D97FE751
:10097C001A60FFF741FE0646636A9F077FF543AF97
:10098C00FFF73AFE801B0228F6D971E7334CE36976
:10099C00D80024D40127E36943F08053E361E36971
:1009AC0003F080530093009B304E3368D90518D563
:1009BC00EB68012B26D1236A43F001032362FFF776
:1009CC001BFE41F288368046236A9B073FD5002FD9
:1009DC003FF41DAFE36923F08053E36117E7002771
:1009EC00E2E7336843F480733360FFF705FE80461B
:1009FC003368DA05DCD4FFF7FFFDA0EB08006428B0
:100A0C00F6D935E7ABB9236A41F2883823F00103F4
:100A1C002362236A23F004032362FFF7EDFD0646ED
:100A2C00236A9807D3D5FFF7E7FD801B4045F7D91C
:100A3C001EE7052B236A03D143F004032362BAE7B4
:100A4C0023F001032362236A23F00403B6E7FFF7C4
:100A5C00D3FDA0EB0800B042B6D909E70010024064
:100A6C0000004242800442423004002000700040EA
:100A7C00224C636803F00C03082B3FF4E2AE002316
:100A8C001F4E022A33602BD1FFF7B6FD07462368B1
:100A9C0099011FD42B6AB3F5803F05D16268A96810
:100AAC0022F400320A436260696A62680B4322F4E2
:100ABC0074121343636001233360FFF79DFD0546F9
:100ACC0023689A013FF5A7AEFFF796FD401B02285D
:100ADC00F6D9CDE6FFF790FDC01B0228D7D9C7E6A3
:100AEC00FFF78AFD054623689B017FF594AEFFF75F
:100AFC0083FD401B0228F6D9BAE600BF0010024065
:100B0C006000424230B51A4B87B002AC03F11005BD
:100B1C00224618685968083303C2AB421446F7D111
:100B2C0001238DF80430022312498DF805304B68EF
:100B3C0003F00C02082A18D1C3F38342DB0348BF2D
:100B4C004B6806A8024448BFC3F3404312F8100C8C
:100B5C0041BF06AA9B1813F8142C074B54BF074B24
:100B6C00B3FBF2F3584307B030BD0348FBE700BFBB
:100B7C00DC0F00080010024000127A0000093D0052
:100B8C004D4A2DE9F0411368054603F007038B42EB
:100B9C000E4628D32A68910732D4D20738D4464A55
:100BAC00136803F007039E4273D32A68434C12F078
:100BBC00040F79D1130706D563682A6923F46053AF
:100BCC0043EAC2036360FFF79DFF63683C4AC3F3CB
:100BDC000313D35CD8403B4B18600F20FFF7DEFCAF
:100BEC000020BDE8F081136823F007030B4313606A
:100BFC00136803F007039942CCD00120BDE8F081C3
:100C0C002E49A8684B6823F0F00303434B60C4E7FC
:100C1C006A682A4C012A23681CD113F4003FECD0DB
:100C2C00636841F2883823F0030313436360FFF7D2
:100C3C00E3FC6B680746012B14D1636803F00C03CB
:100C4C00042BACD0FFF7D8FCC01B4045F5D90320D2
:100C5C00BDE8F081022A02D113F0007FDFE713F028
:100C6C00020FDCE7022B0FD1636803F00C03082B97
:100C7C0095D0FFF7C1FCC01B4045F5D9E7E7FFF75E
:100C8C00BBFCC01B4045E2D8636813F00C0FF6D1D7
:100C9C0085E7136823F0070333431360136803F0ED
:100CAC0007039E42A9D180E76368E96823F4E063F7
:100CBC000B4363607EE700BF00200240001002403F
:100CCC00F00F000830040020074A0002D36800F43B
:100CDC00E06023F4E0631B041B0C43F0BF6343F49C
:100CEC0000330343D360704700ED00E0174B30B581
:100CFC00DC68C4F30224C4F10703251D042B28BFB0
:100D0C000423062D4FF0010598BF002405FA03F3C8
:100D1C0003F1FF3388BF033C1940A14005FA04F4EA
:100D2C00013C2240002842EA01024FEA0212AFBF06
:100D3C0000F16040064B00F00F00D2B2A5BFD2B25A
:100D4C0000F561401A5480F8002330BD00ED00E03E
:100D5C0014ED00E00123420900F01F0003FA00F03B
:100D6C00014B43F82200704700E100E00138B0F17C
:100D7C00807F0AD2F021064B064A586082F8231075
:100D8C000020072298601A6070470120704700BF4E
:100D9C0010E000E000ED00E003680020DA6842F0AB
:100DAC000102DA601A6842F001021A60704770475B
:100DBC00704770477047036810B51A69044691076D
:100DCC000ED5DA6892070BD56FF002021A61012278
:100DDC009B6902779B0777D0FFF7EAFF0023237705
:100DEC0023681A69500710D5DA6851070DD56FF0D2
:100DFC0004021A6102229B69227713F4407F204679
:100E0C0068D0FFF7D5FF0023237723681A691207F0
:100E1C000FD5DA6810070CD56FF008021A6104229E
:100E2C00DB692277990720465AD0FFF7C1FF0023D0
:100E3C00237723681A69D20610D5DA68D0060DD547
:100E4C006FF010021A610822DB69227713F4407FDD
:100E5C0020464BD0FFF7ACFF0023237723681A6999
:100E6C00D10708D5DA68D20705D56FF00102204604
:100E7C001A61FFF78FFB23681A69100608D5DA6828
:100E8C00110605D56FF0800220461A6100F089F832
:100E9C0023681A69520608D5DA68500605D56FF032
:100EAC00400220461A61FFF785FF23681A699106F4
:100EBC0022D5DA6892061FD56FF020022046BDE8D5
:100ECC0010401A6100F06CB8FFF771FF2046FFF775
:100EDC0070FF83E7FFF76BFF2046FFF76AFF92E78F
:100EEC00FFF765FF2046FFF764FFA0E7FFF75FFF02
:100EFC002046FFF75EFFAFE710BD00001A4A0368FB
:100F0C0090420AD0B0F1804F07D0A2F594329042B3
:100F1C0003D002F58062904215D14A6823F0700329
:100F2C001343114A90420AD0B0F1804F07D0A2F57A
:100F3C009432904203D002F58062904203D1CA6889
:100F4C0023F4407313434A6923F080031343036073
:100F5C008B68C3620B688362034B984204BF0B69B6
:100F6C000363012343617047002C014010B5044614
:100F7C00A0B190F83D3003F0FF021BB980F83C2083
:100F8C00FFF762FA0223206884F83D30211DFFF739
:100F9C00B5FF0123002084F83D3010BD012010BDA9
:100FAC0070477047024B13B10248FFF7FBB870470C
:100FBC0000000000BD010008F8B500BFF8BC08BC7B
:100FCC009E467047F8B500BFF8BC08BC9E467047FB
:100FDC0002030405060708090A0B0C0D0E0F10106E
:100FEC0008000020000000000000000001020304C3
:080FFC0006070809430000008C
:08100400B10F0008790100089A
:04100C005101000886
:10101000080000200000000000000000F402002092
:101020005C030020C403002000000000000000005A
:1010300000000000000000000000000000000000B0
:101040000000000000000000000000000010000888
:101050000000000000000000000000000000000090
:101060000000000000000000000000000000000080
:101070000000000000000000000000000000000070
:101080000000000000000000000000000000000060
:101090000000000000000000000000000000000050
:1010A0000000000000000000000000000000000040
:1010B0000000000000000000000000000000000030
:1010C00001000000000000000E33CDAB34126DE6CD
:1010D000ECDE05000B000000000000000000000036
:1010E0000000000000000000000000000000000000
:1010F00000000000000000000000000000000000F0
:1011000000000000000000000000000000000000DF
:1011100000000000000000000000000000000000CF
:0414400000A24A04B8
:0400000508000409E2
:00000001FF
